:08000000803102288731FD2F39
:100E5200F601F11F2D2F2E2F352FF009F109F00A7F
:100E62000319F10AF601F60AF31F382F392F422F20
:100E7200F209F309F20A0319F30A0130F4007408C3
:100E8200F606F701F801700871040319492F4A2F79
:100E9200792FF501F50A562F0130F035F10D890B46
:100EA2004E2F0130F4007408F507F11F592F5A2F05
:100EB2004D2F0130F735F80D890B5B2F7108730246
:100EC200031D652F70087202031C682F692F6E2F95
:100ED2007008F2027108F33B77140130F136F00C1E
:100EE200890B6F2F0130F502031D782F792F5A2FAE
:100EF200760803197D2F7E2F832FF709F809F70A49
:100F02000319F80A7808F1007708F00008006A303F
:100F1200210099008F01FF308D0023008F018D0188
:100F2200FF3020008F00FB01FB0A7B0820008F00AE
:100F320008300F0603199E2F9F2FBB2F0D1CA22FC7
:100F4200A32FB02F0230FA000430F900BA30890B17
:100F5200A82FF90BA82FFA0BA82F0032BB2F0630AF
:100F6200FA001330F900AE30890BB52FF90BB52F0B
:100F7200FA0BB52F7B35FB0009307B02031CC22F15
:100F8200C32F962F0830FC007C0820008F000D1C18
:100F9200CB2FCC2FD92F0230FA000430F900BA300F
:100FA200890BD12FF90BD12FFA0BD12F0032E42F5D
:100FB2000630FA001330F900AE30890BDE2FF90B40
:100FC200DE2FFA0BDE2F0230F0000030F1007C0839
:100FD200F900FA017908F2007A08F300873129272B
:100FE20087317008FC0002307C020318F92FFA2FB7
:0E0FF200C52F942F8031022820008731882FD0
:020000040001F9
:04000E00C439FF3FB3
:00000001FF
