:08000000803102288731FA2F3C
:100BCE000A30F0000030F1007A08F3007908F200E4
:100BDE008631CA26853171082000A1007008A00058
:100BEE000A30F0000030F1007A08F3007908F200C4
:100BFE0086317726853171082000A3007008A20087
:100C0E002308F1002208F0008731292785312000C2
:100C1E0090140D30FB00FC30890B132EFB0B132EA2
:100C2E00200090102108F1002008F00087312927BC
:100C3E008531200010140D30FB00FC30890B252E61
:100C4E00FB0B252E2000101008006A3021009900A1
:100C5E008F01FF308D00900123008F018D019001D7
:100C6E00FF3020008F002000A401A5015C2E250876
:100C7E00FA002408F9008531E72586318230FC0020
:100C8E00DE30890B482EFC0B482E031020000D1869
:100C9E0003140030093DFC00FD017C08A6007D0810
:100CAE00A7000130A4070030A53D2508803AFC00BE
:100CBE0080307C02031D652E643024020318682EDA
:100CCE00692E3A2E20000D1C6D2E6E2E3A2E260801
:100CDE0027040319732E742E3E2E3A2E80310228CD
:100CEE00F601F31F7B2E7C2E832EF209F309F20AF6
:100CFE000319F30AF601F60AF11F862E872E8C2EA3
:100D0E00F009F109F00A0319F10A700871040319C8
:100D1E00912E922EBB2EF501F50A9E2E0130F03546
:100D2E00F10D890B962E0130F4007408F507F11FB2
:100D3E00A12EA22E952E71087302031DA82E7008E7
:100D4E007202031CAB2EAC2EB02E7008F20271088C
:100D5E00F33B0130F136F00C890BB12E0130F50268
:100D6E00031DBA2EBB2EA22E76080319BF2EC02E3F
:100D7E00C52EF209F309F20A0319F30A7308F100FA
:100D8E007208F0000800F601F11FCE2ECF2ED62EDF
:100D9E00F009F109F00A0319F10AF601F60AF31F38
:100DAE00D92EDA2EE32EF209F309F20A0319F30A09
:100DBE000130F4007408F606F701F80170087104AA
:100DCE000319EA2EEB2E1A2FF501F50AF72E013034
:100DDE00F035F10D890BEF2E0130F4007408F50794
:100DEE00F11FFA2EFB2EEE2E0130F735F80D890B82
:100DFE00FC2E71087302031D062F70087202031C6D
:100E0E00092F0A2F0F2F7008F2027108F33B771487
:100E1E000130F136F00C890B102F0130F502031D55
:100E2E00192F1A2FFB2E760803191E2F1F2F242F72
:100E3E00F709F809F70A0319F80A7808F100770894
:100E4E00F0000800F2017003710403192F2F302FE8
:100E5E00402F0630700671040319362F372F402F9E
:100E6E0004307006710403193D2F3E2F402FF201FE
:100E7E00F20A720C2000031C0F1003180F14F3015A
:100E8E0005307006710403194D2F4E2F572F063063
:100E9E00700671040319542F552F572FF301F30ABF
:100EAE00730C031C8F1003188F140230700671041C
:100EBE00031D622F652F20000F15672F20000F11C5
:100ECE00F4017003710403196D2F6E2F852F0430FA
:100EDE00700671040319742F752F852F0730700655
:100EEE00710403197B2F7C2F852F09307006710436
:100EFE000319822F832F852FF401F40A740C031C1F
:100F0E008F1103188F15F501700371040319902FBB
:100F1E00912FB62F0330700671040319972F982F57
:100F2E00B62F04307006710403199E2F9F2FB62F13
:100F3E000530700671040319A52FA62FB62F0730A2
:100F4E00700671040319AC2FAD2FB62F0930700641
:100F5E0071040319B32FB42FB62FF501F50A750CD2
:100F6E00031C0F1203180F16F601700371040319F8
:100F7E00C12FC22FD92F0230700671040319C82F4A
:100F8E00C92FD92F0330700671040319CF2FD02F1C
:100F9E00D92F0730700671040319D62FD72FD92FEA
:100FAE00F601F60A760C031C8F1203188F16F70142
:100FBE00700871040319E42FE52FF42F70037104E8
:100FCE000319EA2FEB2FF42F073070067104031963
:100FDE00F12FF22FF42FF701F70A770C031C0F13E2
:100FEE0003180F1708002000A601A7012000863164
:020FFE002C2E97
:020000040001F9
:04000E00C439FF3FB3
:00000001FF
