:08000000803102288731F82F3E
:100BD8006A30210099008F01FF308D0090012300B9
:100BE8008F018D019001FF3020008F002108FA004D
:100BF8002008F90086313026853120000D1C052E8D
:100C0800062E212E22082304031D0B2E0C2E212E26
:100C18000130A0070030A13D643020062104031DE7
:100C2800162E172E192EA001A1014130FC00EE301E
:100C3800890B1C2EFC0B1C2E0032031020000D18F3
:100C480003140030093DFC00FD017C08A2007D086A
:100C5800A300FA2D803102280A30F0000030F1009C
:100C68007A08F3007908F2008631C82686317108BF
:100C78002000A5007008A4000A30F0000030F10040
:100C88007A08F3007908F2008631752686317108F2
:100C98002000A7007008A6002708F1002608F00029
:100CA800873127278631200090140D30FB00FC3057
:100CB800890B5C2EFB0B5C2E200090102508F100A0
:100CC8002408F000873127278631200010140D30C2
:100CD800FB00FC30890B6E2EFB0B6E2E20001010D3
:100CE8000800F601F31F792E7A2E812EF209F309F6
:100CF800F20A0319F30AF601F60AF11F842E852E6B
:100D08008A2EF009F109F00A0319F10A7008710432
:100D180003198F2E902EB92EF501F50A9C2E01305D
:100D2800F035F10D890B942E0130F4007408F507A5
:100D3800F11F9F2EA02E932E71087302031DA62E5D
:100D480070087202031CA92EAA2EAE2E7008F20299
:100D58007108F33B0130F136F00C890BAF2E0130EE
:100D6800F502031DB82EB92EA02E76080319BD2E44
:100D7800BE2EC32EF209F309F20A0319F30A730807
:100D8800F1007208F0000800F601F11FCC2ECD2EFC
:100D9800D42EF009F109F00A0319F10AF601F60A4E
:100DA800F31FD72ED82EE12EF209F309F20A031900
:100DB800F30A0130F4007408F606F701F801700828
:100DC80071040319E82EE92E182FF501F50AF52EFE
:100DD8000130F035F10D890BED2E0130F400740867
:100DE800F507F11FF82EF92EEC2E0130F735F80D26
:100DF800890BFA2E71087302031D042F7008720202
:100E0800031C072F082F0D2F7008F2027108F33BFF
:100E180077140130F136F00C890B0E2F0130F502F2
:100E2800031D172F182FF92E760803191C2F1D2FB5
:100E3800222FF709F809F70A0319F80A7808F100C8
:100E48007708F0000800F2017003710403192D2FD0
:100E58002E2F3E2F0630700671040319342F352FBC
:100E68003E2F04307006710403193B2F3C2F3E2F90
:100E7800F201F20A720C2000031C0F1003180F1461
:100E8800F30105307006710403194B2F4C2F552FB1
:100E98000630700671040319522F532F552FF30192
:100EA800F30A730C031C8F1003188F14023070069A
:100EB8007104031D602F632F20000F15652F20007C
:100EC8000F11F4017003710403196B2F6C2F832F1A
:100ED8000430700671040319722F732F832F0730A3
:100EE800700671040319792F7A2F832F0930700641
:100EF80071040319802F812F832FF401F40A740CD5
:100F0800031C8F1103188F15F50170037104031961
:100F18008E2F8F2FB42F0330700671040319952F6D
:100F2800962FB42F04307006710403199C2F9D2F3F
:100F3800B42F0530700671040319A32FA42FB42F02
:100F48000730700671040319AA2FAB2FB42F09308C
:100F5800700671040319B12FB22FB42FF501F50AE9
:100F6800750C031C0F1203180F16F6017003710499
:100F78000319BF2FC02FD72F023070067104031931
:100F8800C62FC72FD72F0330700671040319CD2F32
:100F9800CE2FD72F0730700671040319D42FD52F01
:100FA800D72FF601F60A760C031C8F1203188F163A
:100FB800F701700871040319E22FE32FF22F700371
:100FC80071040319E82FE92FF22F07307006710416
:100FD8000319EF2FF02FF22FF701F70A770C031CF4
:100FE8000F1303180F1708002000A001A101A20188
:080FF800A30120008531EC2D5E
:020000040001F9
:04000E00C439FF3FB3
:00000001FF
